:100000000C9453000C947B000C947B000C947B00AC
:100010000C947B000C947B000C947B000C947B0074
:100020000C947B000C947B000C947B000C947B0064
:100030000C947B000C947B000C947B000C947B0054
:100040000C940E010C947B000C9474020C94B70277
:100050000C947B000C947B000C947B000C947B0034
:100060000C947B000C947B0001020408102040805B
:1000700001020408102001020408102004040404F2
:100080000404040402020202020203030303030342
:1000900000000000250028002B00000000002400C4
:1000A00027002A00730311241FBECFEFD8E0DEBF64
:1000B000CDBF11E0A0E0B1E0E0E5F8E002C00590BE
:1000C0000D92A231B107D9F711E0A2E1B1E001C070
:1000D0001D92A53CB107E1F710E0C6EAD0E004C0EC
:1000E0002297FE010E942204C43AD107C9F70E9458
:1000F000C9030C9426040C94000062E08BE00E947B
:10010000D50062E08CE00E94D50061E08DE00E94A5
:10011000D50040E855E260E070E08BE191E00E949C
:10012000F20280E00E94B50060E083E10E94D50009
:1001300060E082E10E94D50060E081E10C94D5008E
:1001400083E10E94B80062E370E080E090E00E94EA
:100150007B0182E10E94B80062E370E080E090E001
:100160000E947B0181E10C94B80080930001089506
:100170008E3008F08E5087702091000190E4299F06
:1001800090011124822B80937C0080917A008064FE
:1001900080937A0080917A0086FDFCCF8091780070
:1001A0002091790090E0922B0895CF93DF9390E017
:1001B000FC01E859FF4F2491FC01E458FF4F849162
:1001C000882349F190E0880F991FFC01E656FF4F04
:1001D000A591B49180579F4FFC01C591D4919FB7D1
:1001E000611108C0F8948C91209582238C938881AA
:1001F00082230AC0623051F4F8948C91322F3095EA
:1002000083238C938881822B888304C0F8948C91FB
:10021000822B8C939FBFDF91CF9108951F920F92F5
:100220000FB60F9211242F933F938F939F93AF9309
:10023000BF938091130190911401A0911501B09189
:1002400016013091120123E0230F2D3720F401967F
:10025000A11DB11D05C026E8230F0296A11DB11DE9
:10026000209312018093130190931401A093150120
:10027000B09316018091170190911801A091190176
:10028000B0911A010196A11DB11D809317019093A1
:100290001801A0931901B0931A01BF91AF919F91DA
:1002A0008F913F912F910F900FBE0F901F90189537
:1002B0003FB7F8948091170190911801A09119010E
:1002C000B0911A0126B5A89B05C02F3F19F00196E1
:1002D000A11DB11D3FBF6627782F892F9A2F620F6E
:1002E000711D811D911D42E0660F771F881F991FA8
:1002F0004A95D1F70895CF92DF92EF92FF92CF9374
:10030000DF936B017C010E945801EB01C114D10401
:10031000E104F10479F00E9458016C1B7D0B683EEA
:100320007340A0F381E0C81AD108E108F108C85170
:10033000DC4FECCFDF91CF91FF90EF90DF90CF902B
:100340000895789484B5826084BD84B5816084BD4D
:1003500085B5826085BD85B5816085BDEEE6F0E03E
:10036000808181608083E1E8F0E01082808182609A
:100370008083808181608083E0E8F0E0808181601B
:100380008083E1EBF0E0808184608083E0EBF0E04B
:10039000808181608083EAE7F0E0808184608083EF
:1003A0008081826080838081816080838081806899
:1003B00080831092C1000895FC0124853585F901E0
:1003C000E05CFF4F80819181F901EE5BFF4F20815E
:1003D0003181821B930B8F7399270895FC018485CB
:1003E0009585FC01E05CFF4F40815181FC01EE5B93
:1003F000FF4F208131814217530741F00190F08176
:10040000E02DE80FF91F808190E008958FEF9FEFB6
:100410000895FC0184859585FC01E05CFF4F4081D7
:100420005181FC01EE5BFF4F208131814217530760
:1004300079F0A081B181A80FB91F8C912081318101
:100440002F5F3F4F2F7333273183208390E0089530
:100450008FEF9FEF0895FC0181A1882329F0A489E3
:10046000B5898C9186FFFBCF11A20895CF93DF93BE
:10047000FC0126853785D901A05CBF4F8D919C91E9
:10048000119701968F739927E901CE5BDF4F488161
:10049000598184179507D9F30D90BC91A02DA20F17
:1004A000B31F6C93A685B785A05CBF4F11969C9334
:1004B0008E93A689B7892C9181E090E0078C02C0C9
:1004C000880F991F0A94E2F7282B2C9381E081A3CF
:1004D0000488F589E02D80818064808381E090E04C
:1004E000DF91CF91089508951F920F920FB60F924A
:1004F00011242F933F934F938F939F93EF93FF93E9
:100500008091C00082FD1CC04091C6008091C10155
:100510009091C20101968F7399272091C301309168
:10052000C4018217930771F0E091C101F091C201FB
:10053000EF57FE4F40839093C2018093C10102C0E8
:100540008091C600FF91EF919F918F914F913F91C4
:100550002F910F900FBE0F901F9018958BE191E097
:100560000E94DC01892B11F00C94730208951F92F4
:100570000F920FB60F9211242F933F938F939F9357
:10058000EF93FF9320917D0130917E0180917F0157
:10059000909180012817390731F48091C1008F7D37
:1005A0008093C10014C0E0917F01F0918001E35C71
:1005B000FE4F208180917F019091800101968F7381
:1005C00099279093800180937F012093C600FF912B
:1005D000EF919F918F913F912F910F900FBE0F90B0
:1005E0001F901895CF92DF92EF92FF92CF93DF93F7
:1005F000EC016A017B01411581EE58076105710527
:10060000F9F0EC89FD8981E090E008A002C0880F34
:10061000991F0A94E2F7808360E079E08DE390E02F
:10062000A70196010E94FE03215031094109510999
:100630005695479537952795211580E1380798F00D
:10064000EC89FD89108260E874E88EE190E0A701F2
:1006500096010E94FE032150310941095109569526
:10066000479537952795E889F9893083EA89FB8989
:10067000208319A2EE89FF89408181E090E09C01EE
:100680000C8C02C0220F331F0A94E2F7422B4083E6
:10069000EE89FF8940819C010D8C02C0220F331F1F
:1006A0000A94E2F7422B4083EE89FF8940819C0146
:1006B0000E8C02C0220F331F0A94E2F7422B4083B4
:1006C000EE89FF8920810F8C02C0880F991F0A9440
:1006D000E2F7809582238083DF91CF91FF90EF90A6
:1006E000DF90CF90089510921E0110921D0188EEA8
:1006F00093E0A0E0B0E080931F0190932001A093CD
:100700002101B093220185E091E090931C01809338
:100710001B0181E891E090932801809327018DE3EC
:1007200091E090932A018093290185EC90E09093C9
:100730002C0180932B0184EC90E090932E01809308
:100740002D0180EC90E09093300180932F0181EC9B
:1007500090E0909332018093310182EC90E090938D
:1007600034018093330186EC90E0909336018093BE
:10077000350184E08093370183E08093380187E07E
:100780008093390185E080933A0181E080933B01B9
:1007900008950E94A1010E947D00CEEAD2E00E944D
:1007A000A0002097E1F30E94AE02F9CFCF92DF9232
:1007B000EF92FF920F931F93CF93DF936C017A0117
:1007C000EB01E60EF71E00E010E0CE15DF0561F04C
:1007D0006991D601ED91FC910190F081E02DC60167
:1007E0000995080F191FF1CFC801DF91CF911F9113
:1007F0000F91FF90EF90DF90CF900895A1E21A2E15
:10080000AA1BBB1BFD010DC0AA1FBB1FEE1FFF1FB4
:10081000A217B307E407F50720F0A21BB30BE40B04
:10082000F50B661F771F881F991F1A9469F760954B
:100830007095809590959B01AC01BD01CF01089505
:10084000EE0FFF1F0590F491E02D0994F894FFCF6F
:1008500001000000003602D603DC010902EE012B84
:02086000020094
:00000001FF
