:100000000C9462000C948A000C948A000C948A0070
:100010000C948A000C948A000C948A000C948A0038
:100020000C948A000C948A000C948A000C948A0028
:100030000C948A000C948A000C948A000C948A0018
:100040000C9413020C948A000C9479030C94BC0356
:100050000C948A000C948A000C948A000C948A00F8
:100060000C948A000C948A00000000070002010032
:100070000003040600000000000000000102040864
:100080001020408001020408102001020408102002
:10009000040404040404040402020202020203032E
:1000A00003030303000000002300260029000000D2
:1000B0000000250028002B0000000000240027007D
:1000C0002A00780411241FBECFEFD8E0DEBFCDBFD9
:1000D00011E0A0E0B1E0E6EFF1E102C005900D9281
:1000E000A432B107D9F711E0A4E2B1E001C01D923A
:1000F000A83DB107E1F710E0C4ECD0E004C02297BE
:10010000FE010E94F508C23CD107C9F70E94CE0447
:100110000C94F9080C94000040E855E260E070E0AF
:100120008EE291E00E94F70380E00E94680160E0A7
:1001300083E10E94B10160E082E10E94B10160E0D0
:1001400081E10E94B10162E088E00C94B101BF92AC
:10015000CF92DF92EF92FF920F931F93CF93DF9393
:1001600083E10E946B016C0162E370E080E090E04B
:100170000E94800282E10E946B018C0162E370E0C8
:1001800080E090E00E94800281E10E946B01EC011E
:1001900082E3E82EF12CBB24B39488E00E94EA01AC
:1001A000892B79F480912401811103C0B09224013C
:1001B00002C01092240168EE73E080E090E00E949B
:1001C000800261E070E080E090E00E94800281E0C7
:1001D000E81AF108E114F10401F780912401882361
:1001E00009F46CC0B601882777FD8095982F0E948E
:1001F000B60720E030E040E054E40E94B2062AE96D
:1002000039E94CEC52E40E941B07AB01BC0122E02F
:1002100030E08EE291E00E94B00661E071E08EE293
:1002200091E00E941905B801882777FD8095982FE5
:100230000E94B60720E030E040E054E40E94B2069D
:100240002AE939E94CEC52E40E941B07AB01BC01DE
:1002500022E030E08EE291E00E94B00661E071E0C1
:100260008EE291E00E941905BE01882777FD8095F6
:10027000982F0E94B60720E030E040E054E40E944E
:10028000B2062AE939E94CEC52E40E941B07AB01A3
:10029000BC0122E030E08EE291E00E94B00663E013
:1002A00071E08EE291E0DF91CF911F910F91FF906D
:1002B000EF90DF90CF90BF900C941905DF91CF9114
:1002C0001F910F91FF90EF90DF90CF90BF90089516
:1002D0008093000108958E3008F08E508770209131
:1002E000000190E4299F90011124822B80937C00CF
:1002F00080917A00806480937A0080917A0086FDF4
:10030000FCCF809178002091790090E0922B0895A5
:10031000833081F028F4813099F08230A1F0089583
:100320008630A9F08730B9F08430D1F48091800014
:100330008F7D03C0809180008F7780938000089527
:1003400084B58F7702C084B58F7D84BD0895809178
:10035000B0008F7703C08091B0008F7D8093B00094
:100360000895CF93DF9390E0FC01E458FF4F249170
:10037000FC01E057FF4F8491882349F190E0880FFA
:10038000991FFC01E854FF4FA591B49182559F4FEE
:10039000FC01C591D4919FB7611108C0F8948C916C
:1003A000209582238C93888182230AC0623051F485
:1003B000F8948C91322F309583238C938881822BF3
:1003C000888304C0F8948C91822B8C939FBFDF911B
:1003D000CF910895CF93DF93282F30E0F901E859AA
:1003E000FF4F8491F901E458FF4FD491F901E05790
:1003F000FF4FC491CC2391F081110E948801EC2F12
:10040000F0E0EE0FFF1FEC55FF4FA591B4912C913A
:100410002D2381E090E021F480E002C080E090E0B4
:10042000DF91CF9108951F920F920FB60F92112472
:100430002F933F938F939F93AF93BF938091260108
:1004400090912701A0912801B091290130912501B7
:1004500023E0230F2D3720F40196A11DB11D05C007
:1004600026E8230F0296A11DB11D2093250180933C
:10047000260190932701A0932801B0932901809130
:100480002A0190912B01A0912C01B0912D01019690
:10049000A11DB11D80932A0190932B01A0932C01E3
:1004A000B0932D01BF91AF919F918F913F912F916B
:1004B0000F900FBE0F901F9018953FB7F894809142
:1004C0002A0190912B01A0912C01B0912D0126B50C
:1004D000A89B05C02F3F19F00196A11DB11D3FBF7C
:1004E0006627782F892F9A2F620F711D811D911D0C
:1004F00042E0660F771F881F991F4A95D1F708952C
:10050000CF92DF92EF92FF92CF93DF936B017C014A
:100510000E945D02EB01C114D104E104F10479F001
:100520000E945D026C1B7D0B683E7340A0F381E06E
:10053000C81AD108E108F108C851DC4FECCFDF91AF
:10054000CF91FF90EF90DF90CF900895789484B58D
:10055000826084BD84B5816084BD85B5826085BDBF
:1005600085B5816085BDEEE6F0E0808181608083A5
:10057000E1E8F0E010828081826080838081816088
:100580008083E0E8F0E0808181608083E1EBF0E04F
:10059000808184608083E0EBF0E0808181608083F3
:1005A000EAE7F0E0808184608083808182608083DC
:1005B0008081816080838081806880831092C10007
:1005C0000895FC0124853585F901E05CFF4F8081A9
:1005D0009181F901EE5BFF4F20813181821B930BEA
:1005E0008F7399270895FC0184859585FC01E05C53
:1005F000FF4F40815181FC01EE5BFF4F2081318133
:100600004217530741F00190F081E02DE80FF91FE8
:10061000808190E008958FEF9FEF0895FC0184851D
:100620009585FC01E05CFF4F40815181FC01EE5B50
:10063000FF4F208131814217530779F0A081B181AA
:10064000A80FB91F8C91208131812F5F3F4F2F73ED
:1006500033273183208390E008958FEF9FEF089533
:10066000FC0181A1882329F0A489B5898C9186FF9A
:10067000FBCF11A20895CF93DF93FC012685378528
:10068000D901A05CBF4F8D919C91119701968F73FA
:100690009927E901CE5BDF4F48815981841795077F
:1006A000D9F30D90BC91A02DA20FB31F6C93A6851A
:1006B000B785A05CBF4F11969C938E93A689B7898E
:1006C0002C9181E090E0078C02C0880F991F0A945A
:1006D000E2F7282B2C9381E081A30488F589E02D93
:1006E00080818064808381E090E0DF91CF910895E4
:1006F00008951F920F920FB60F9211242F933F93DC
:100700004F938F939F93EF93FF938091C00082FD4F
:100710001CC04091C6008091D4019091D5010196F2
:100720008F7399272091D6013091D70182179307B3
:1007300071F0E091D401F091D501EC56FE4F408369
:100740009093D5018093D40102C08091C600FF919F
:10075000EF919F918F914F913F912F910F900FBEED
:100760000F901F9018958EE291E00E94E102892B74
:1007700011F00C94780308951F920F920FB60F9208
:1007800011242F933F938F939F93EF93FF93209187
:1007900090013091910180919201909193012817DD
:1007A000390731F48091C1008F7D8093C10014C05E
:1007B000E0919201F0919301E05BFE4F20818091E6
:1007C00092019091930101968F73992790939301D1
:1007D000809392012093C600FF91EF919F918F919A
:1007E0003F912F910F900FBE0F901F901895CF92B1
:1007F000DF92EF92FF92CF93DF93EC016A017B01CE
:10080000411581EE580761057105F9F0EC89FD8904
:1008100081E090E008A002C0880F991F0A94E2F7D7
:10082000808360E079E08DE390E0A70196010E946B
:10083000D1082150310941095109569547953795FD
:100840002795211580E1380798F0EC89FD89108201
:1008500060E874E88EE190E0A70196010E94D1085B
:1008600021503109410951095695479537952795EA
:10087000E889F9893083EA89FB89208319A2EE8906
:10088000FF89408181E090E09C010C8C02C0220F26
:10089000331F0A94E2F7422B4083EE89FF8940819F
:1008A0009C010D8C02C0220F331F0A94E2F7422BE9
:1008B0004083EE89FF8940819C010E8C02C0220F8B
:1008C000331F0A94E2F7422B4083EE89FF8920818F
:1008D0000F8C02C0880F991F0A94E2F7809582233B
:1008E0008083DF91CF91FF90EF90DF90CF900895BC
:1008F000109231011092300188EE93E0A0E0B0E058
:100900008093320190933301A0933401B093350169
:1009100089E091E090932F0180932E0184E991E08A
:1009200090933B0180933A0180E591E090933D01E3
:1009300080933C0185EC90E090933F0180933E01D1
:1009400084EC90E0909341018093400180EC90E032
:10095000909343018093420181EC90E09093450194
:100960008093440182EC90E090934701809346018C
:1009700086EC90E0909349018093480184E0809355
:100980004A0183E080934B0187E080934C0185E02E
:1009900080934D0181E080934E0108950E94A6024C
:1009A0000E948C00C3EBD3E00E94A7002097E1F3E4
:1009B0000E94B303F9CFCF92DF92EF92FF920F9391
:1009C0001F93CF93DF936C017A01EB01E60EF71EC4
:1009D00000E010E0CE15DF0561F06991D601ED91E0
:1009E000FC910190F081E02DC6010995080F191FB7
:1009F000F1CFC801DF91CF911F910F91FF90EF9040
:100A0000DF90CF9008956115710581F0DB010D90A5
:100A10000020E9F7AD0141505109461B570BDC019D
:100A2000ED91FC910280F381E02D099480E090E04B
:100A300008950C940305DC01ED91FC910190F08187
:100A4000E02D09948F929F92AF92BF92CF92DF9246
:100A5000EF92FF920F931F93CF93DF93CDB7DEB743
:100A6000A1970FB6F894DEBF0FBECDBF7C01C42E98
:100A7000E52FCB01D22E19A221E02D1510F02AE08E
:100A8000D22E8E010F5D1F4F8D2C912CA12CB12CDD
:100A90006C2D7E2FA50194010E94D1088C2DD29E31
:100AA00080191124015011098A3014F4805D01C0AD
:100AB000895CF8018083211531054105510521F03C
:100AC000C22EE32FCA01E4CFB801C7010E9403057B
:100AD000A1960FB6F894DEBF0FBECDBFDF91CF91C8
:100AE0001F910F91FF90EF90DF90CF90BF90AF904C
:100AF0009F908F900895CF92DF92EF92FF920F9385
:100B00001F93CF93DF93EC016A017B01211531051F
:100B100079F4E881F9810190F081E02D642FDF9173
:100B2000CF911F910F91FF90EF90DF90CF9009949C
:100B30002A303105E9F477FF1AC06DE20E941B05E7
:100B40008C0144275527BA014C195D096E097F09AC
:100B50002AE0CE010E942205800F911FDF91CF91E4
:100B60001F910F91FF90EF90DF90CF9008952AE0B2
:100B7000B701A601CE01DF91CF911F910F91FF9098
:100B8000EF90DF90CF900C9422054F925F926F927E
:100B90007F928F929F92AF92BF92CF92DF92EF920D
:100BA000FF920F931F93CF93DF93EC016A017B01B8
:100BB000B22E9A01AB01C701B6010E94CD0888236D
:100BC00019F065E171E027C026013701E89477F854
:100BD0002FEF3FEF4FE75FE7C301B2010E94CD085F
:100BE00081110DC02FEF3FEF4FE75FE7C301B20167
:100BF0000E94170718161CF469E171E00CC02FEF72
:100C00003FEF4FE75FE4C701B6010E946608181680
:100C1000ACF46DE171E0CE01DF91CF911F910F91A6
:100C2000FF90EF90DF90CF90BF90AF909F908F900C
:100C30007F906F905F904F900C9403052FEF3FEFE4
:100C40004FE75FECC701B6010E94170787FDE1CFB0
:100C500020E030E0A901C701B6010E94170787FF15
:100C60000AC06DE2CE010E941B058C01F7FAF094D8
:100C7000F7F8F09402C000E010E0A12C60E070E012
:100C800080E09FE3AB1441F020E030E040E251E42B
:100C90000E941B07A394F6CF9B01AC01C701B601CC
:100CA0000E94B3066B017C010E9488072B013C0166
:100CB0000E94B4079B01AC01C701B6010E94B206B5
:100CC0006B017C012AE0B301A201CE010E94220542
:100CD000080F191FBB2039F061E271E0CE010E94BC
:100CE0000305080F191F7B2C772041F120E030E02D
:100CF00040E251E4C701B6010E946A086B017C0121
:100D00000E9483074B01AA2497FCA094BA2C2AE0E6
:100D100030E0B501A401CE010E947B05080F191F28
:100D2000C501B4010E94B6079B01AC01C701B60121
:100D30000E94B2066B017C017A94D6CFC801DF9184
:100D4000CF911F910F91FF90EF90DF90CF90BF90C8
:100D5000AF909F908F907F906F905F904F9008958D
:100D60000C94C5055058BB27AA270ED075C166D173
:100D700030F06BD120F031F49F3F11F41EF45BC1D1
:100D80000EF4E095E7FB51C1E92F77D180F3BA1754
:100D9000620773078407950718F071F49EF58FC1F9
:100DA0000EF4E0950B2EBA2FA02D0B01B901900186
:100DB0000C01CA01A0011124FF27591B99F0593FCA
:100DC00050F4503E68F11A16F040A22F232F342F12
:100DD0004427585FF3CF469537952795A795F04060
:100DE0005395C9F77EF41F16BA0B620B730B840B75
:100DF000BAF09150A1F0FF0FBB1F661F771F881F2D
:100E0000C2F70EC0BA0F621F731F841F48F4879584
:100E100077956795B795F7959E3F08F0B3CF939573
:100E2000880F08F09927EE0F979587950895D9D0E8
:100E300008F481E008950CD00FC107D140F0FED036
:100E400030F021F45F3F19F0F0C0511139C1F3C007
:100E500014D198F39923C9F35523B1F3951B550B7E
:100E6000BB27AA2762177307840738F09F5F5F4F7D
:100E7000220F331F441FAA1FA9F333D00E2E3AF0BE
:100E8000E0E830D091505040E695001CCAF729D0D8
:100E9000FE2F27D0660F771F881FBB1F2617370727
:100EA0004807AB07B0E809F0BB0B802DBF01FF2757
:100EB00093585F4F2AF09E3F510568F0B6C000C1BD
:100EC0005F3FECF3983EDCF3869577956795B79591
:100ED000F7959F5FC9F7880F911D9695879597F9AC
:100EE0000895E1E0660F771F881FBB1F6217730725
:100EF0008407BA0720F0621B730B840BBA0BEE1F3A
:100F000088F7E095089504D06894B111D9C0089588
:100F1000BCD088F09F5790F0B92F9927B751A0F017
:100F2000D1F0660F771F881F991F1AF0BA95C9F77D
:100F300012C0B13081F0C3D0B1E00895C0C0672FB6
:100F4000782F8827B85F39F0B93FCCF3869577952D
:100F50006795B395D9F73EF4909580957095619516
:100F60007F4F8F4F9F4F0895E89409C097FB3EF441
:100F700090958095709561957F4F8F4F9F4F9923E6
:100F8000A9F0F92F96E9BB279395F6958795779564
:100F90006795B795F111F8CFFAF4BB0F11F460FF24
:100FA0001BC06F5F7F4F8F4F9F4F16C0882311F07C
:100FB00096E911C0772321F09EE8872F762F05C090
:100FC000662371F096E8862F70E060E02AF09A952B
:100FD000660F771F881FDAF7880F9695879597F920
:100FE0000895990F0008550FAA0BE0E8FEEF1616BA
:100FF0001706E807F907C0F012161306E407F5070D
:1010000098F0621B730B840B950B39F40A2661F080
:10101000232B242B252B21F408950A2609F4A14023
:10102000A6958FEF811D811D089597F99F6780E830
:1010300070E060E008959FEF80EC089500240A942A
:101040001616170618060906089500240A941216A3
:101050001306140605060895092E0394000C11F4D6
:10106000882352F0BB0F40F4BF2B11F460FF04C083
:101070006F5F7F4F8F4F9F4F089557FD9058440FDC
:10108000551F59F05F3F71F04795880F97FB991FE7
:1010900061F09F3F79F087950895121613061406A4
:1010A000551FF2CF4695F1DF08C016161706180631
:1010B000991FF1CF86957105610508940895E8940C
:1010C000BB2766277727CB0197F908958ADF08F4B5
:1010D0008FEF08950BD0C0CFB1DF28F0B6DF18F046
:1010E000952309F0A2CFA7CF1124EACFC6DFA0F342
:1010F000959FD1F3950F50E0551F629FF001729FAD
:10110000BB27F00DB11D639FAA27F00DB11DAA1FCB
:10111000649F6627B00DA11D661F829F2227B00D18
:10112000A11D621F739FB00DA11D621F839FA00DA3
:10113000611D221F749F3327A00D611D231F849FF3
:10114000600D211D822F762F6A2F11249F5750404A
:101150008AF0E1F088234AF0EE0FFF1FBB1F661FE5
:10116000771F881F91505040A9F79E3F510570F09E
:101170005CCFA6CF5F3FECF3983EDCF38695779586
:101180006795B795F795E7959F5FC1F7FE2B880F99
:10119000911D9695879597F9089523DF880B990BF4
:1011A0000895A1E21A2EAA1BBB1BFD010DC0AA1FA8
:1011B000BB1FEE1FFF1FA217B307E407F50720F0C0
:1011C000A21BB30BE40BF50B661F771F881F991F3B
:1011D0001A9469F760957095809590959B01AC0184
:1011E000BD01CF010895EE0FFF1F0590F491E02D92
:0611F0000994F894FFCF02
:1011F6000109000A00000000003B03DB04E1020EC7
:1012060003F30230036E616E00696E66006F7666E8
:04121600002E0000A6
:00000001FF
